:020000040800F2
:1000000000800120FD0300084D0400084D04000895
:100010004D0400084D0400084D04000800000000D5
:100020000000000000000000000000004D04000877
:100030004D040008000000004D0400084D040008B5
:10004000000000004D0400084D0400084D040008A5
:100050004D0400084D0400084D0400084D0400083C
:100060004D0400084D0400084D0400080000000085
:100070000000000000000000000000000000000080
:1000800000000000000000004D0400080000000017
:100090000000000000000000000000004D04000807
:1000A0004D0400084D0400084D0400084D040008EC
:1000B0004D0400084D0400084D0400084D040008DC
:1000C0004D0400084D0400084D0400084D040008CC
:1000D0004D0400084D0400084D0400080000000015
:1000E0004D0400084D0400084D0400080000000005
:1000F0000000000000000000000000000000000000
:10010000000000004D0400084D0400084D040008E4
:1001100000000000000000000000000000000000DF
:1001200000000000000000000000000000000000CF
:1001300000000000000000000000000000000000BF
:100140000000000000000000000000004D04000856
:100150000000000000000000000000004D04000846
:100160004D0400084D0400080000000000000000DD
:10017000000000000000000000000000000000007F
:10018000000000004D040008000000000000000016
:040190004D04000812
:1001940010B5054C237833B9044B13B10448AFF3BD
:1001A40000800123237010BD000000200000000027
:1001B4009804000808B5034B1BB103490348AFF387
:1001C400008008BD0000000004000020980400081E
:1001D40080B485B000AF78600023FB6022E0174B49
:1001E4004FF47A525A60154B00229A60134B1B68E5
:1001F400124A43F004031360104B1B680F4A43F088
:100204000103136000BF0D4B1B6803F48033002B04
:10021400F9D00A4B1B68094A23F001031360FB68F9
:100224000133FB60FA687B689A42D8DB00BF00BFE9
:100234001437BD465DF8047B704700BF10E000E052
:1002440080B500AF694B1B6B684A43F0010313632D
:10025400664B1B6C654A43F400331364644B1B68A0
:10026400634A43F0A0031360614B1B6A604A43F482
:10027400EE4313625F4BDB685E4A43F00803D360CE
:100284005C4B8B229A605B4BDB685A4A43F4005305
:10029400D360584B00225A6000BF564B1B6803F0D2
:1002A4008003002BF9D0534B41225A606420FFF79E
:1002B4008FFF00BF4F4B1B6803F08003002BF9D066
:1002C4004C4B4E225A606420FFF782FF00BF494B1B
:1002D4001B6803F08003002BF9D0464B4B225A6075
:1002E4006420FFF775FF00BF424B1B6803F08003D7
:1002F400002BF9D03F4B49225A606420FFF768FF76
:1003040000BF3C4B1B6803F08003002BF9D0394B32
:1003140054225A606420FFF75BFF00BF354B1B6813
:1003240003F08003002BF9D0324B20225A60642062
:10033400FFF74EFF00BF2F4B1B6803F08003002B19
:10034400F9D02C4B53225A606420FFF741FF00BFC1
:10035400284B1B6803F08003002BF9D0254B49225E
:100364005A606420FFF734FF00BF224B1B6803F080
:100374008003002BF9D01F4B52225A606420FFF7F0
:1003840027FF00BF1B4B1B6803F08003002BF9D031
:10039400184B20225A606420FFF71AFF00BF154B48
:1003A4001B6803F08003002BF9D0124B4F225A60D4
:1003B4006420FFF70DFF00BF0E4B1B6803F08003A2
:1003C400002BF9D00B4B50225A606420FFF700FF3A
:1003D40000BF084B1B6803F08003002BF9D0054BCA
:1003E4000D225A606420FFF7F3FE55E700380240FF
:1003F40000000240004400400D488546AFF30080F1
:100404000C480D490D4A002302E0D458C45004336B
:10041400C4188C42F9D30A4A0A4C002301E0136041
:100424000432A242FBD300F011F8FFF709FFFEE704
:10043400008001200000002000000020B804000813
:10044400000000201C000020FEE7000070B50D4DE8
:100454000D4C641BA4100026A64209D10B4D0C4C74
:1004640000F018F8641BA4100026A64205D170BD44
:1004740055F8043B98470136EEE755F8043B984796
:100484000136F2E7B0040008B0040008B004000824
:10049400B4040008F8B500BFF8BC08BC9E46704719
:0C04A400F8B500BFF8BC08BC9E467047CD
:0404B000B901000886
:0404B40095010008A6
:04000005080003FDEF
:00000001FF
