:020000040800F2
:1000000000800120C9020008190300081903000834
:100010001903000819030008190300080000000074
:1000200000000000000000000000000019030008AC
:100030001903000800000000190300081903000854
:100040000000000019030008190300081903000844
:100050001903000819030008190300081903000810
:100060001903000819030008190300080000000024
:100070000000000000000000000000000000000080
:10008000000000000000000019030008000000004C
:10009000000000000000000000000000190300083C
:1000A00019030008190300081903000819030008C0
:1000B00019030008190300081903000819030008B0
:1000C00019030008190300081903000819030008A0
:1000D00019030008190300081903000800000000B4
:1000E00019030008190300081903000800000000A4
:1000F0000000000000000000000000000000000000
:100100000000000019030008190300081903000883
:1001100000000000000000000000000000000000DF
:1001200000000000000000000000000000000000CF
:1001300000000000000000000000000000000000BF
:10014000000000000000000000000000190300088B
:10015000000000000000000000000000190300087B
:100160001903000819030008000000000000000047
:10017000000000000000000000000000000000007F
:10018000000000001903000800000000000000004B
:040190001903000847
:1001940010B5054C237833B9044B13B10448AFF3BD
:1001A40000800123237010BD000000200000000027
:1001B4006403000808B5034B1BB103490348AFF3BC
:1001C400008008BD00000000040000206403000853
:1001D40080B485B000AF78600023FB6022E0174B49
:1001E4004FF47A525A60154B00229A60134B1B68E5
:1001F400124A43F004031360104B1B680F4A43F088
:100204000103136000BF0D4B1B6803F48033002B04
:10021400F9D00A4B1B68094A23F001031360FB68F9
:100224000133FB60FA687B689A42D8DB00BF00BFE9
:100234001437BD465DF8047B704700BF10E000E052
:1002440080B500AF1C4B1B6B1B4A43F001031363C7
:10025400194B1B6B184A43F002031363174B1B68BB
:10026400164A43F001031360154B1B68144A43F00C
:1002740001031360114B5B69104A43F0010353619E
:100284000F4B5B690E4A23F0010353614FF47A70FC
:10029400FFF79EFF0A4B5B69094A43F00103536170
:1002A400064B5B69054A23F0010353614FF47A70EE
:1002B400FFF78EFFDEE700BF003802400000024077
:1002C400000402400D488546AFF300800C480D49F8
:1002D4000D4A002302E0D458C4500433C4188C429D
:1002E400F9D30A4A0A4C002301E013600432A24203
:1002F400FBD300F011F8FFF7A3FFFEE70080012015
:1003040000000020000000208403000800000020FA
:100314001C000020FEE7000070B50D4D0D4C641B61
:10032400A4100026A64209D10B4D0C4C00F018F87D
:10033400641BA4100026A64205D170BD55F8043BE9
:1003440098470136EEE755F8043B98470136F2E743
:100354007C0300087C0300087C0300088003000879
:10036400F8B500BFF8BC08BC9E467047F8B500BF9E
:08037400F8BC08BC9E4670476E
:04037C00B9010008BB
:0403800095010008DB
:04000005080002C924
:00000001FF
