:020000040800F2
:100000000080012055040008A5040008A50400088C
:10001000A5040008A5040008A504000800000000CD
:10002000000000000000000000000000A50400081F
:10003000A504000800000000A5040008A5040008AD
:1000400000000000A5040008A5040008A50400089D
:10005000A5040008A5040008A5040008A5040008DC
:10006000A5040008A5040008A5040008000000007D
:100070000000000000000000000000000000000080
:100080000000000000000000A504000800000000BF
:10009000000000000000000000000000A5040008AF
:1000A000A5040008A5040008A5040008A50400088C
:1000B000A5040008A5040008A5040008A50400087C
:1000C000A5040008A5040008A5040008A50400086C
:1000D000A5040008A5040008A5040008000000000D
:1000E000A5040008A5040008A504000800000000FD
:1000F0000000000000000000000000000000000000
:1001000000000000A5040008A5040008A5040008DC
:1001100000000000000000000000000000000000DF
:1001200000000000000000000000000000000000CF
:1001300000000000000000000000000000000000BF
:10014000000000000000000000000000A5040008FE
:10015000000000000000000000000000A5040008EE
:10016000A5040008A504000800000000000000002D
:10017000000000000000000000000000000000007F
:1001800000000000A50400080000000000000000BE
:04019000A5040008BA
:1001940010B5054C237833B9044B13B10448AFF3BD
:1001A40000800123237010BD000000200000000027
:1001B400F004000808B5034B1BB103490348AFF32F
:1001C400008008BD0000000004000020F0040008C6
:1001D40080B582B000AF0346FB71164B00225A6112
:1001E400144B5B69134A23F001035361114B5B69A0
:1001F400104A23F0020353610E4B5B69FA799200B3
:1002040011460C4A0B4353610A4B5B69094A43F09C
:10021400020353610A2000F07DF8064B5B69054A2E
:1002240023F0020353610A2000F074F800BF08377A
:10023400BD4680BD0000024080B582B000AF0346D9
:10024400FB71164B00225A61144B5B69134A43F04D
:1002540001035361114B5B69104A23F0020353619C
:100264000E4B5B69FA79920011460C4A0B435361B9
:100274000A4B5B69094A43F0020353610A2000F008
:1002840049F8064B5B69054A23F0020353610A20CF
:1002940000F040F800BF0837BD4680BD00000240B2
:1002A40080B500AF4FF4967000F034F83820FFF7B3
:1002B4008FFF0E20FFF78CFF0120FFF789FF0A2034
:1002C40000F028F80620FFF783FF8020FFF780FF67
:1002D40000BF80BD80B582B000AF786007E07B6866
:1002E4001B781846FFF7A8FF7B6801337B607B68A7
:1002F4001B78002BF3D100BF00BF0837BD4680BD7B
:1003040080B500AF0120FFF763FF0A2000F002F878
:1003140000BF80BD80B485B000AF78600023FB606F
:1003240022E0174B4FF47A525A60154B00229A6020
:10033400134B1B68124A43F004031360104B1B68F1
:100344000F4A43F00103136000BF0D4B1B6803F415
:100354008033002BF9D00A4B1B68094A23F00103B0
:100364001360FB680133FB60FA687B689A42D8DB50
:1003740000BF00BF1437BD465DF8047B704700BF63
:1003840010E000E080B500AF284B1B6B274A43F018
:1003940001031363264B1A682549264B13430B604C
:1003A400234B1A682249244B13400B60FFF778FF54
:1003B4008020FFF70DFF2148FFF78CFF4FF47A7080
:1003C400FFF7A8FFC020FFF703FF1D48FFF782FFD8
:1003D4004FF47A70FFF79EFFFFF792FF8020FFF73C
:1003E400F7FE1848FFF776FF4FF47A70FFF792FF95
:1003F400C020FFF7EDFE1448FFF76CFF4FF47A704E
:10040400FFF788FF9020FFF7E3FE1048FFF762FF35
:100414004FF47A70FFF77EFF0120FFF7D9FE012029
:10042400FFF778FFFFF76CFFC2E700BF0038024018
:1004340000000240555505005555F5FF0805000814
:10044400140500081C050008240500082C050008F4
:100454000D488546AFF300800C480D490D4A002332
:1004640002E0D458C4500433C4188C42F9D30A4A65
:100474000A4C002301E013600432A242FBD300F0D3
:1004840011F8FFF77FFFFEE7008001200000002045
:10049400000000203C050008000000201C00002093
:1004A400FEE7000070B50D4D0D4C641BA410002632
:1004B400A64209D10B4D0C4C00F018F8641BA41093
:1004C4000026A64205D170BD55F8043B9847013675
:1004D400EEE755F8043B98470136F2E73405000887
:1004E400340500083405000838050008F8B500BFD5
:1004F400F8BC08BC9E467047F8B500BFF8BC08BC01
:040504009E46704758
:100508005368616B756E746C610000004A616973B1
:1005180077616C0041726A756E00000053696E67FE
:0C0528006800000052616A7075740000E9
:04053400B901000801
:040538009501000821
:040000050800045596
:00000001FF
