:020000040800F2
:1000000000800120E90500083906000839060008CB
:10001000390600083906000839060008000000000B
:100020000000000000000000000000003906000889
:1000300039060008000000003906000839060008EB
:1000400000000000390600083906000839060008DB
:100050003906000839060008390600083906000884
:1000600039060008390600083906000800000000BB
:100070000000000000000000000000000000000080
:100080000000000000000000390600080000000029
:100090000000000000000000000000003906000819
:1000A0003906000839060008390600083906000834
:1000B0003906000839060008390600083906000824
:1000C0003906000839060008390600083906000814
:1000D000390600083906000839060008000000004B
:1000E000390600083906000839060008000000003B
:1000F0000000000000000000000000000000000000
:10010000000000003906000839060008390600081A
:1001100000000000000000000000000000000000DF
:1001200000000000000000000000000000000000CF
:1001300000000000000000000000000000000000BF
:100140000000000000000000000000003906000868
:100150000000000000000000000000003906000858
:100160003906000839060008000000000000000001
:10017000000000000000000000000000000000007F
:100180000000000039060008000000000000000028
:040190003906000824
:1001A00010B5054C237833B9044B13B10448AFF3B1
:1001B00000800123237010BD6400002000000000B7
:1001C000A816000808B5034B1BB103490348AFF359
:1001D000008008BD0000000068000020A81600088C
:1001E00001F0FF01102A2BDB10F0070F08D010F8E8
:1001F000013B013A8B422DD010F0070F42B3F6D1EC
:10020000F0B441EA012141EA014122F007047FF004
:1002100000070023F0E80256083C85EA010586EA5B
:10022000010685FA47F5A3FA87F586FA47F6A5FA97
:1002300087F68EB9EED1F0BC01F0FF0102F00702A3
:1002400032B110F8013B013A83EA010313B1F8D14E
:100250000020704701387047002D06BF354603382F
:10026000073815F0010F07D1013015F4807F02BF68
:10027000013015F4C03F0130F0BC0138704700BFB9
:1002800080B400AF114B1B6B104A43F001031363A2
:100290000F4B1B680E4A43F0030313600B4B5B6C60
:1002A0000A4A43F4807353640A4B00225A63094B91
:1002B0000022DA62074B9B68064A43F00103936011
:1002C00000BFBD465DF8047B704700BF00380240A8
:1002D000000002400020014080B400AF114B1B6BB6
:1002E000104A43F0010313630F4B1B680E4A43F09F
:1002F0000C0313600B4B5B6C0A4A43F4807353642A
:100300000A4B01225A63094B0022DA62074B9B68B1
:10031000064A43F00103936000BFBD465DF8047BCD
:10032000704700BF0038024000000240002001403A
:1003300080B400AF094B9B68084A43F08043936048
:1003400000BF064B1B6803F00203002BF9D0034BE0
:10035000DB6C1846BD465DF8047B70470020014009
:1003600080B400AF174B1B6B164A43F001031363B5
:10037000144B1B6C134A43F400331364124B1B6879
:10038000114A43F0A00313600F4B1B6A0E4A43F45B
:10039000EE4313620D4BDB680C4A43F00C03D36051
:1003A0000A4B8B229A60094BDB68084A43F40053DE
:1003B000D360064B00225A6000BFBD465DF8047B47
:1003C000704700BF00380240000002400044004077
:1003D00080B483B000AF0346FB7100BF074B1B68BE
:1003E00003F08003002BF9D0044AFB79536000BF6F
:1003F0000C37BD465DF8047B704700BF00440040E9
:1004000080B582B000AF78607B68DBB21846FFF73A
:10041000DFFF7B6818460837BD4680BD80B584B0D5
:1004200000AFFFF79DFF1A4800F0C0F9FFF728FF63
:10043000184800F035F9FFF77BFF03467B607968C9
:10044000154800F02DF90023FB6002E0FB68013342
:10045000FB60FB6842F20F729342F7DDFFF73CFF4F
:100460000E4800F01DF9FFF763FF03467B607968D3
:10047000094800F015F90023BB6002E0BB680133B6
:10048000BB60BB6842F20F729342F7DDCEE700BF5C
:10049000C0160008D4160008E8160008F416000874
:1004A00080B586B000AFF860B9607A6000237B61E8
:1004B0000AE0AFF300800146BB685A1CBA60CAB2BA
:1004C0001A707B6901337B617A697B689A42F0DB41
:1004D0007B6818461837BD4680BD80B586B000AF32
:1004E000F860B9607A6000237B6109E0BB685A1C40
:1004F000BA601B781846FFF783FF7B6901337B6185
:100500007A697B689A42F1DB7B6818461837BD46EA
:1005100080BD80B483B000AF78604FF0FF331846E1
:100520000C37BD465DF8047B704780B483B000AFE4
:10053000786039603B684FF400525A6000231846D7
:100540000C37BD465DF8047B704780B483B000AFC4
:100550007860012318460C37BD465DF8047B704770
:1005600080B485B000AFF860B9607A6000231846A7
:100570001437BD465DF8047B7047000080B586B037
:1005800000AF7860144A154BD31A7B617B693B61DD
:10059000134B1B68002B02D1114B124A1A60104BEF
:1005A0001A687B6813443A699A4207D200F046F809
:1005B00003460C221A604FF0FF3309E0084B1B681A
:1005C000FB60074B1A687B681344054A1360FB689D
:1005D00018461837BD4680BD008001200004000089
:1005E00080000020980000200D488546AFF3008071
:1005F0000C480D490D4A002302E0D458C45004337E
:10060000C4188C42F9D30A4A0A4C002301E0136053
:100610000432A242FBD300F017F8FFF7FFFEFEE71B
:10062000008001200000002064000020A4170008C2
:100630006400002094000020FEE70000014B1868D1
:10064000704700BF0000002070B50D4D0D4C641BBD
:10065000A4100026A64209D10B4D0C4C01F024F841
:10066000641BA4100026A64205D170BD55F8043BBA
:1006700098470136EEE755F8043B98470136F2E714
:100680009C1700089C1700089C170008A01700087A
:1006900002440346934200D1704703F8011BF9E777
:1006A0000FB40A4B13B51C6824B1A36913B92046D3
:1006B00000F05EFA05AB049AA1680193204600F0B1
:1006C00067FC02B0BDE8104004B070470000002095
:1006D00070B50E46054618B183690BB900F048FAAB
:1006E000AB69AC6813B9284600F042FA2C4B9C4227
:1006F00020D16C68636EDB0705D4A389980502D40A
:10070000A06D00F0D3FAA38919071DD52369DBB1C9
:10071000013EA36816F8011F013BA36039BB002B03
:1007200038DA22460A21284600F048F8013011D074
:100730000A2511E01B4B9C4201D1AC68DAE71A4B49
:100740009C4208BFEC68D5E72146284600F088F8AF
:100750000028DDD04FF0FF35636EDA0705D4A3899A
:100760009B0502D4A06D00F0A2FA284670BD002BB4
:1007700004DAA2699A4206DC0A2904D023685A1CCA
:1007800022601970C5E72246284600F017F80130AC
:10079000BFD1DFE723680A255A1C22601D70DBE702
:1007A000281700084817000808170008024B0146E0
:1007B0001868FFF78DBF00BF00000020F8B50E4697
:1007C0001446054618B183690BB900F0D1F9214BE5
:1007D0009C422BD16C68A369A360A3891A072FD50B
:1007E00023696BB323692068C01A6369F6B2834238
:1007F000374604DC2146284600F026F930BBA368C2
:10080000013BA36023685A1C22601E70636901309B
:10081000834204D0A389DB0706D50A2E04D12146E2
:10082000284600F011F988B93846F8BD0A4B9C42B9
:1008300001D1AC68CFE7094B9C4208BFEC68CAE71E
:100840002146284600F00CF80028CBD04FF0FF37A7
:10085000EAE700BF28170008481700080817000833
:10086000324B70B51D6806460C4625B1AB6913B90D
:10087000284600F07DF92E4B9C420FD16C68A3896D
:10088000B4F90C2019072CD4DD0611D409233360E8
:1008900042F04003A3814FF0FF303EE0254B9C42E5
:1008A00001D1AC68EBE7244B9C4208BFEC68E6E75B
:1008B000580712D5616B41B104F14403994202D04B
:1008C000304600F05BFA00236363A38923F024031E
:1008D000A3810023636023692360A38943F0080395
:1008E000A38123694BB9A38903F42073B3F5007F77
:1008F00003D02146304600F001FAA089B4F90C205B
:1009000010F001030AD00023A36063695B42A36176
:10091000236943B910F08000BAD170BD810758BF78
:100920006369A360F4E70020F7E700BF0000002040
:100930002817000848170008081700088A892DE9B9
:10094000F041054610070C4658D44B68002B05DCD7
:100950000B6C002B02DC0020BDE8F081E66A002E63
:10096000F9D0002312F480522F682B6032D0606DD2
:10097000A3895A0705D56368C01A636B0BB1236C52
:10098000C01A00230246E66A216A2846B047431C83
:10099000A38906D129681D292CD82A4ACA40D6071E
:1009A00028D500226260D9042269226004D5421C45
:1009B00001D12B6803B96065616B2F600029CAD033
:1009C00004F14403994202D0284600F0D7F90020F0
:1009D0006063C1E7216A01232846B047411CC7D1A3
:1009E0002B68002BC4D01D2B01D0162B01D12F60FA
:1009F000B1E7A38943F04003A381ADE70F69002F5E
:100A0000A9D093070E6808BF4B690F6018BF002379
:100A1000A6EB07088B60B8F1000F9CDD216AA66A7F
:100A200043463A462846B047002806DCA38943F0EF
:100A30004003A3814FF0FF308EE70744A8EB000886
:100A4000E9E700BF0100402038B50B6905460C46B8
:100A500013B90025284638BD18B183690BB900F0D9
:100A600087F8144B9C421BD16C68B4F90C30002BF6
:100A7000EFD0626ED00704D4990502D4A06D00F0C7
:100A800015F928462146FFF759FF636EDA07054638
:100A9000E0D4A3899B05DDD4A06D00F008F9D9E767
:100AA000054B9C4201D1AC68DFE7044B9C4208BF78
:100AB000EC68DAE72817000848170008081700084C
:100AC000002310B50446C0E90033C0E90433836055
:100AD00081814366C2818361194608225C30FFF739
:100AE000D7FD054B6362054BA362054BE362054BE3
:100AF0002462236310BD00BF391500085B15000890
:100B000093150008B7150008014900F0AFB800BF01
:100B1000490A000870B568224D1E55430E4605F17E
:100B2000740100F097F9044640B10021C0E90016B5
:100B30000C30A06005F16802FFF7AAFD204670BDE9
:100B4000014800F0B3B800BF85000020014800F064
:100B5000AEB800BF85000020014800F0A7B800BF74
:100B600086000020014800F0A2B800BF86000020E7
:100B700010B50446FFF7F0FFA3691BB1BDE81040B4
:100B8000FFF7F0BFC4E912332365134B134A1B6808
:100B9000A262A34204BF0123A361204600F020F813
:100BA0006060204600F01CF8A060204600F018F8B5
:100BB0000022E06004216068FFF782FFA068012244
:100BC0000921FFF77DFFE06802221221FFF778FF7D
:100BD0000123A361D2E700BF04170008090B000836
:100BE000F8B50746FFF7ACFF1E4B1E68B36913B993
:100BF0003046FFF7BDFF4836D6E90134013B03D547
:100C000033680BB33668F7E7B4F90C50D5B9164B17
:100C1000E36004F15800656600F047F8FFF796FFBF
:100C2000C4E90155C4E904552560A5610822294697
:100C300004F15C00FFF72CFDC4E90D55C4E9125521
:100C40002046F8BD6834D9E704213846FFF762FF33
:100C5000044630600028D5D1FFF778FF0C233B60B5
:100C6000EEE700BF041700080100FFFF2DE9F8437D
:100C70000646884600F148040027D4E90195B9F1F9
:100C8000010905D52468002CF7D13846BDE8F88362
:100C9000AB89012B07D9B5F90E30013303D02946B2
:100CA0003046C04707436835E9E7704770477047EB
:100CB00070B50E46B1F90E10002996B014461D46C7
:100CC00008DAB6F90C3000222A601A0610D44FF464
:100CD00080630EE06A4600F095FC0028F1DB019A83
:100CE00002F47042A2F500535A425A412A60EEE7DC
:100CF00040230020236016B070BD00008B8973B5BF
:100D00009D0706460C4607D504F14703236023617F
:100D10000123636102B070BD01AB6A46FFF7C8FFF3
:100D200000990546304600F095F848B9B4F90C3002
:100D30009A05EFD423F0030343F00203A381E3E712
:100D40000D4BB362A389206043F08003A381009B15
:100D50006361019B20615BB1B4F90E10304600F075
:100D600063FC28B1A38923F0030343F00103A381AB
:100D7000A0890543A581CDE7090B000837B50029F7
:100D800044D051F8043C0190002BA1F10404B8BFF9
:100D9000E41800F06BFC1E4A0198136833B96360D5
:100DA000146003B0BDE8304000F066BCA34208D92F
:100DB000256861198B4201BF19685B684919216078
:100DC000EDE71A465B680BB1A342FAD911685518D2
:100DD000A5420BD1246821445418A3421160E0D1EC
:100DE0001C685B68536021441160DAE702D90C2368
:100DF0000360D6E7256861198B4204BF19685B68F8
:100E0000636004BF491921605460CAE703B030BD74
:100E10008800002070B50E4E0C463168054611B9A9
:100E200000F07AFB30602146284600F075FB431C39
:100E30000AD0C41C24F00304A04207D0211A28467B
:100E400000F06AFB013001D14FF0FF34204670BD45
:100E50008C0000202DE9F041CD1C25F0030508355C
:100E60000C2D38BF0C25002D074601DBA94205D902
:100E70000C233B6000263046BDE8F0812E4E00F08A
:100E8000F5FB33681C4634BB29463846FFF7C2FFE2
:100E9000431C04464DD134682646002E40D12368B9
:100EA0003146384604EB030800F036FB80453AD162
:100EB000216803356D1A25F0030508350C2D38BF60
:100EC0000C2529463846FFF7A5FF01302BD02368B3
:100ED0002B4423600EE02268521B1ED40B2A16D925
:100EE0006119A342256018BF5960636808BF31606B
:100EF00062514B60384604F10B0600F0BDFB26F052
:100F00000706231DF21AB6D09B1BA350B3E76268F5
:100F1000A3420CBF32605A60ECE723466468B2E734
:100F200034467668B9E70C233B60384600F0A4FBF2
:100F3000A1E72560DEE700BF880000209368013B41
:100F4000002B10B4936008DA9469A34201DB0A29EC
:100F500003D15DF8044BFFF731BC1368581C1060D7
:100F6000197008465DF8044B7047F8B506460F4601
:100F70001446D518AC4201D1002007E014F8011B3B
:100F80003A463046FFF7DAFF431CF3D1F8BD0000C4
:100F90002DE9F04F0D469DB014469846064618B10F
:100FA00083690BB9FFF7E4FD894B9D421BD175683E
:100FB0006B6ED90705D4AB899A0502D4A86DFFF7EB
:100FC00075FEAB891B0701D52B69EBB92946304665
:100FD000FFF746FCC0B16B6EDC070ED54FF0FF305B
:100FE0001DB0BDE8F08F7B4B9D4201D1B568DFE7B6
:100FF000794B9D4208BFF568DAE7AB899805EDD4D7
:10100000A86DFFF754FEE9E70023099320238DF82C
:101010002930CDF80C803023DFF8C0818DF82A30DC
:101020004FF0010923469A4613F8012B0AB1252AED
:10103000F9D1BAEB040B0BD05B4622462946304669
:10104000FFF793FF013000F0AA80099A5A440992F1
:101050009AF80030002B00F0A28000234FF0FF32FE
:10106000CDE905230AF1010A049307938DF8533063
:101070001A935446052214F8011B5848FFF7B0F89C
:10108000049AD8B9D10644BF20238DF853301307F2
:1010900044BF2B238DF853309AF800302A2B15D0FB
:1010A000079A544600204FF00A0C214611F8013BE4
:1010B000303B092B4ED9B0B1079214E0A0EB0803E6
:1010C00009FA03F313430493A246D2E7039B191DC5
:1010D0001B680391002BBBBF5B4242F002020793E7
:1010E0000793B8BF049223782E2B0CD163782A2B58
:1010F00035D1039B1A1D1B680392002BB8BF4FF01C
:10110000FF3302340593DFF8E4A021780322504630
:10111000FFF766F840B14023A0EB0A0003FA00F0A5
:10112000049B03430134049314F8011B2C488DF8ED
:1011300028100622FFF754F800283FD0294B1BBB8C
:10114000039B073323F0070308330393099B3B44B6
:10115000099367E70CFB02320C460120A5E7002348
:101160000134059319464FF00A0C204610F8012B64
:10117000303A092A03D9002BC5D00591C3E70CFBEF
:10118000012104460123F0E703AB00932A46164BE6
:1011900004A93046AFF300800746781CD6D16B6EA9
:1011A000D90705D4AB899A0502D4A86DFFF77FFD56
:1011B000AB895B063FF512AF099811E703AB0093CB
:1011C0002A46094B04A9304600F080F8E4E700BF46
:1011D00028170008481700080817000868170008B3
:1011E00072170008000000006B0F00086E1700085F
:1011F0002DE9F047164699468A680B69DDF820808C
:101200009342B8BF1346336091F8432007460C461B
:101210000AB1013333602368990642BF3368023351
:101220003360256815F0060506D104F1190AE36854
:1012300032689B1AAB4226DC94F84320131E2268C6
:1012400018BF012392062BD404F1430249463846C5
:10125000C04701301ED02368E568326803F00603FA
:10126000042B08BFAD1AA36822690CBF25EAE575F7
:1012700000259342C4BF9B1AED1800261A34B542CC
:101280001AD1002008E00123524649463846C0479B
:10129000013003D14FF0FF30BDE8F0870135C6E7DC
:1012A000E1185A1C302081F84300224494F845107C
:1012B00082F843100233C7E70123224649463846E5
:1012C000C0470130E6D00136D9E700002DE9FF47DD
:1012D0000F7E0C9D782F914680460C469A4601F170
:1012E000430207D8622F0AD8002F00F0D880582F69
:1012F00000F0A38004F1420584F842703AE0A7F1BF
:101300006303152BF6D801A151F823F065130008EB
:1013100079130008F5120008F5120008F51200080C
:10132000F512000879130008F5120008F5120008FC
:10133000F5120008F512000885140008A91300082A
:1013400067140008F5120008F5120008A714000839
:10135000F5120008A9130008F5120008F51200089C
:101360006F1400082B681A1D1B682A6004F14205DF
:1013700084F842300123A3E020682968060601F1C1
:1013800004030AD50E682B60002E03DA2D23764263
:1013900084F843305E480A2319E00E682B6010F091
:1013A000400F18BF36B2EFE72B682068191D29607F
:1013B000010601D51E6802E04606FBD51E8854488A
:1013C0006F2F0CBF08230A23002184F8431065689F
:1013D000A560002DA2BF216821F0040121600EB993
:1013E000002D4DD01546B6FBF3F103FB1167C75D29
:1013F00005F8017D3746BB420E46F4D9082B0BD1C8
:101400002368DE0708D5236961689942DEBF30236F
:1014100005F8013C05F1FF35521B2261CDF800A013
:101420004B4603AA21464046FFF7E2FE01304CD16D
:101430004FF0FF3004B0BDE8F087354881F84570C3
:101440002968236851F8046B29601D0614D5DF074D
:1014500044BF43F0200323601EB9236823F0200318
:1014600023601023B0E7236843F020032360782330
:10147000284884F84530E3E7590648BFB6B2E6E7A6
:101480001546BBE72B6826686169181D286035067C
:101490001B6801D5196002E07006FBD51980002396
:1014A00023611546BAE72B681A1D2A601D68626819
:1014B00000212846FEF794FE08B1401B6060636877
:1014C0002361002384F84330A8E723692A4649466C
:1014D0004046D0470130ABD023689B0713D4E06867
:1014E000039B9842B8BF1846A4E7012332464946F9
:1014F0004046D04701309BD00135E36803995B1A21
:10150000AB42F2DCEBE7002504F11906F5E700BF7A
:10151000791700088A17000838B5064D00230446DD
:1015200008462B60FFF72AF8431C02D12B6803B151
:10153000236038BD9000002010B50C46B1F90E10A4
:1015400000F0A0F80028ABBF636DA3891B1823F43B
:101550008053ACBF6365A38110BD2DE9F0411F46E8
:101560008B89DB0505460C46164605D5B1F90E10EC
:101570000223002200F068F8A389B4F90E1023F4C6
:101580008053A38132463B462846BDE8F04100F037
:1015900017B810B50C46B1F90E1000F055F8431C01
:1015A000A38915BF606523F4805343F48053A3815E
:1015B00018BFA38110BDB1F90E1000F013B80000E0
:1015C00038B5074D04460846114600222A601A46DF
:1015D000FEF783FF431C02D12B6803B1236038BDA3
:1015E0009000002038B5064D0023044608462B60C5
:1015F000FEF78FFF431C02D12B6803B1236038BD77
:101600009000002038B5074D0023044608461146D7
:101610002B60FEF78AFF431C02D12B6803B12360C5
:1016200038BD00BF9000002038B5064D00230446A9
:1016300008462B60FEF789FF431C02D12B6803B1DB
:10164000236038BD9000002038B5074D0446084699
:10165000114600222A601A46FEF782FF431C02D17F
:101660002B6803B1236038BD900000200148FFF7CC
:101670001DBB00BF840000200148FFF718BB00BF5E
:101680008400002038B5074D044608461146002264
:101690002A601A46FEF704FF431C02D12B6803B1EF
:1016A000236038BD90000020F8B500BFF8BC08BC2E
:1016B0009E467047F8B500BFF8BC08BC9E46704710
:1016C0005541525420496E697420436F6D706C65AA
:1016D00074650D000A0D0D4144433020537461724E
:1016E0007465642E0000000056616C75653A202513
:1016F000640D00000A4144433120537461727465E3
:10170000642E000004000020000000000000000023
:1017100000000000000000000000000000000000C9
:1017200000000000000000000000000000000000B9
:1017300000000000000000000000000000000000A9
:101740000000000000000000000000000000000099
:101750000000000000000000000000000000000089
:101760000000000000000000232D302B2000686CDA
:101770004C006566674546470030313233343536B4
:1017800037383941424344454600303132333435ED
:0C1790003637383961626364656600001A
:04179C00C50100087B
:0417A000A10100089B
:1017A4000400002000000000281700084817000863
:1017B40008170008000000000000000000000000FE
:1017C4000000000000000000000000000000000015
:1017D4000000000000000000000000000000000005
:1017E40000000000000000000000000000000000F5
:1017F40000000000000000000000000000000000E5
:0418040000000000E0
:04000005080005E901
:00000001FF
