:020000040800F2
:1000000000800120B9020008090300080903000864
:1000100009030008090300080903000800000000A4
:1000200000000000000000000000000009030008BC
:100030000903000800000000090300080903000884
:100040000000000009030008090300080903000874
:100050000903000809030008090300080903000850
:100060000903000809030008090300080000000054
:100070000000000000000000000000000000000080
:10008000000000000000000009030008000000005C
:10009000000000000000000000000000090300084C
:1000A0000903000809030008090300080903000800
:1000B00009030008090300080903000809030008F0
:1000C00009030008090300080903000809030008E0
:1000D00009030008090300080903000800000000E4
:1000E00009030008090300080903000800000000D4
:1000F0000000000000000000000000000000000000
:1001000000000000090300080903000809030008B3
:1001100000000000000000000000000000000000DF
:1001200000000000000000000000000000000000CF
:1001300000000000000000000000000000000000BF
:10014000000000000000000000000000090300089B
:10015000000000000000000000000000090300088B
:100160000903000809030008000000000000000067
:10017000000000000000000000000000000000007F
:10018000000000000903000800000000000000005B
:040190000903000857
:1001940010B5054C237833B9044B13B10448AFF3BD
:1001A40000800123237010BD000000200000000027
:1001B4005403000808B5034B1BB103490348AFF3CC
:1001C400008008BD00000000040000205403000863
:1001D40080B400AF144B1B6C134A43F40033136414
:1001E400124B1B68114A43F0A00313600F4B1B6AA8
:1001F4000E4A43F4EE4313620D4BDB680C4A43F0A2
:100204000C03D3600A4B8B229A60094BDB68084AC3
:1002140043F40053D360064B00225A6000BFBD462E
:100224005DF8047B704700BF0038024000000240C4
:100234000044004080B483B000AF0346FB7100BFAC
:10024400074B1B6803F08003002BF9D0044AFB79A9
:10025400536000BF0C37BD465DF8047B704700BF98
:100264000044004080B400AF00BF074B1B6803F09C
:100274002003002BF9D0044B5B68DBB21846BD4663
:100284005DF8047B704700BF0044004080B500AFB8
:10029400074B1B6B064A43F001031363FFF798FFF8
:1002A400FFF7E0FF03461846FFF7C4FFF8E700BF77
:1002B400003802400D488546AFF300800C480D49D4
:1002C4000D4A002302E0D458C4500433C4188C42AD
:1002D400F9D30A4A0A4C002301E013600432A24213
:1002E400FBD300F011F8FFF7D1FFFEE700800120F7
:1002F400000000200000002074030008000000201B
:100304001C000020FEE7000070B50D4D0D4C641B71
:10031400A4100026A64209D10B4D0C4C00F018F88D
:10032400641BA4100026A64205D170BD55F8043BF9
:1003340098470136EEE755F8043B98470136F2E753
:100344006C0300086C0300086C03000870030008C9
:10035400F8B500BFF8BC08BC9E467047F8B500BFAE
:08036400F8BC08BC9E4670477E
:04036C00B9010008CB
:0403700095010008EB
:04000005080002B934
:00000001FF
