:020000040800F2
:1000000000800120B904000809050008090500085E
:10001000090500080905000809050008000000009E
:1000200000000000000000000000000009050008BA
:10003000090500080000000009050008090500087E
:10004000000000000905000809050008090500086E
:100050000905000809050008090500080905000848
:10006000090500080905000809050008000000004E
:100070000000000000000000000000000000000080
:10008000000000000000000009050008000000005A
:10009000000000000000000000000000090500084A
:1000A00009050008090500080905000809050008F8
:1000B00009050008090500080905000809050008E8
:1000C00009050008090500080905000809050008D8
:1000D00009050008090500080905000800000000DE
:1000E00009050008090500080905000800000000CE
:1000F0000000000000000000000000000000000000
:1001000000000000090500080905000809050008AD
:1001100000000000000000000000000000000000DF
:1001200000000000000000000000000000000000CF
:1001300000000000000000000000000000000000BF
:100140000000000000000000000000000905000899
:100150000000000000000000000000000905000889
:100160000905000809050008000000000000000063
:10017000000000000000000000000000000000007F
:100180000000000009050008000000000000000059
:040190000905000855
:1001940010B5054C237833B9044B13B10448AFF3BD
:1001A40000800123237010BD000000200000000027
:1001B4005405000808B5034B1BB103490348AFF3CA
:1001C400008008BD00000000040000205405000861
:1001D40080B582B000AF0346FB71264B00225A6102
:1001E400244B5A69FB799B1003F03C0321491343C8
:1001F4004B61204B5B691F4A23F0010353611D4B84
:100204005B691C4A43F0020353610A2000F0C8F8FA
:10021400184B5B69174A23F0020353610A2000F06C
:10022400BFF8144B00225A61124B5A69FB799B00A8
:1002340003F03C030F4913434B610E4B5B690D4ABA
:1002440023F0010353610B4B5B690A4A43F0020339
:1002540053610A2000F0A4F8064B5B69054A23F0B9
:10026400020353610A2000F09BF800BF0837BD4623
:1002740080BD00BF0000024080B582B000AF0346DD
:10028400FB71264B00225A61244B5A69FB799B105F
:1002940003F03C03214913434B61204B5B691F4A24
:1002A40043F0010353611D4B5B691C4A43F0020395
:1002B40053610A2000F074F8184B5B69174A23F065
:1002C400020353610A2000F06BF8144B00225A61B8
:1002D400124B5A69FB799B0003F03C030F4913430B
:1002E4004B610E4B5B690D4A43F0010353610B4BA9
:1002F4005B690A4A43F0020353610A2000F050F894
:10030400064B5B69054A23F0020353610A2000F09F
:1003140047F800BF0837BD4680BD00BF000002405B
:1003240080B500AF4FF4967000F03AF83320FFF731
:100334004FFF3220FFF74CFF2820FFF749FF0E2024
:10034400FFF746FF0120FFF743FF0A2000F028F8DB
:100354000620FFF73DFF8020FFF73AFF00BF80BD76
:1003640080B582B000AF786007E07B681B781846E0
:10037400FFF782FF7B6801337B607B681B78002B6F
:10038400F3D100BF00BF0837BD4680BD80B500AFC4
:100394000120FFF71DFF0A2000F002F800BF80BD16
:1003A40080B485B000AF78600023FB6022E0174B77
:1003B4004FF47A525A60154B00229A60134B1B6813
:1003C400124A43F004031360104B1B680F4A43F0B6
:1003D4000103136000BF0D4B1B6803F48033002B33
:1003E400F9D00A4B1B68094A23F001031360FB6828
:1003F4000133FB60FA687B689A42D8DB00BF00BF18
:100404001437BD465DF8047B704700BF10E000E080
:1004140080B500AF214B1B6B204A43F001031363EB
:100424001F4B1B681E4A43F4AA6343F00503136081
:100434001B4B1B681A4A23F42A6323F00A03136034
:10044400FFF76EFF8020FFF7C3FE1648FFF788FF13
:100454004FF47A70FFF7A4FFC020FFF7B9FE1248EB
:10046400FFF77EFF4FF47A70FFF79AFF9020FFF7B3
:10047400AFFE0E48FFF774FF4FF47A70FFF790FF5A
:10048400D020FFF7A5FE0A48FFF76AFF4FF47A7001
:10049400FFF786FFFFF77AFFD4E700BF003802407A
:1004A400000002406C050008780500088405000877
:1004B400900500080D488546AFF300800C480D49AF
:1004C4000D4A002302E0D458C4500433C4188C42AB
:1004D400F9D30A4A0A4C002301E013600432A24211
:1004E400FBD300F011F8FFF793FFFEE70080012033
:1004F4000000002000000020AC05000800000020DF
:100504001C000020FEE7000070B50D4D0D4C641B6F
:10051400A4100026A64209D10B4D0C4C00F018F88B
:10052400641BA4100026A64205D170BD55F8043BF7
:1005340098470136EEE755F8043B98470136F2E751
:10054400A4050008A4050008A4050008A8050008DF
:10055400F8B500BFF8BC08BC9E467047F8B500BFAC
:08056400F8BC08BC9E4670477C
:10056C007E7E7E7E4C43447E7E7E7E00342D4269B0
:10057C00742D4D6F6465000048656C6C6F20526182
:10058C0068756C0048656C6C6F205368616B756E98
:08059C0074616C6100000000B5
:0405A400B901000891
:0405A80095010008B1
:04000005080004B932
:00000001FF
