:020000040800F2
:1000000000800120390300088903000889030008E3
:100010008903000889030008890300080000000024
:10002000000000000000000000000000890300083C
:100030008903000800000000890300088903000804
:1000400000000000890300088903000889030008F4
:100050008903000889030008890300088903000850
:1000600089030008890300088903000800000000D4
:100070000000000000000000000000000000000080
:1000800000000000000000008903000800000000DC
:1000900000000000000000000000000089030008CC
:1000A0008903000889030008890300088903000800
:1000B00089030008890300088903000889030008F0
:1000C00089030008890300088903000889030008E0
:1000D0008903000889030008890300080000000064
:1000E0008903000889030008890300080000000054
:1000F0000000000000000000000000000000000000
:100100000000000089030008890300088903000833
:1001100000000000000000000000000000000000DF
:1001200000000000000000000000000000000000CF
:1001300000000000000000000000000000000000BF
:10014000000000000000000000000000890300081B
:10015000000000000000000000000000890300080B
:100160008903000889030008000000000000000067
:10017000000000000000000000000000000000007F
:1001800000000000890300080000000000000000DB
:0401900089030008D7
:1001940010B5054C237833B9044B13B10448AFF3BD
:1001A40000800123237010BD000000200000000027
:1001B400D403000808B5034B1BB103490348AFF34C
:1001C400008008BD0000000004000020D4030008E3
:1001D40080B485B000AF78600023FB6022E0174B49
:1001E4004FF47A525A60154B00229A60134B1B68E5
:1001F400124A43F004031360104B1B680F4A43F088
:100204000103136000BF0D4B1B6803F48033002B04
:10021400F9D00A4B1B68094A23F001031360FB68F9
:100224000133FB60FA687B689A42D8DB00BF00BFE9
:100234001437BD465DF8047B704700BF10E000E052
:1002440080B400AF144B1B6C134A43F400331364A3
:10025400124B1B68114A43F0A00313600F4B1B6A37
:100264000E4A43F4EE4313620D4BDB680C4A43F031
:100274000403D3600A4B8B229A60094BDB68084A5B
:1002840043F40053D360064B00225A6000BFBD46BE
:100294005DF8047B704700BF003802400000024054
:1002A4000044004080B400AF00BF074B1B6803F05C
:1002B4002003002BF9D0044B5B68DBB21846BD4623
:1002C4005DF8047B704700BF0044004080B500AF78
:1002D400164B1B6B154A43F001031363144B1B6845
:1002E400134A43F4AA0343F4AA431360104B1B6854
:1002F4000F4A23F42A0323F42A431360FFF7A0FFD1
:100304000B4B5B690A4A23F47F635361FFF7CAFF0F
:1003140003461A01064B5B691146054A0B435361B8
:1003240040F6B830FFF754FFEAE700BF0038024058
:10033400000002400D488546AFF300800C480D498B
:100344000D4A002302E0D458C4500433C4188C422C
:10035400F9D30A4A0A4C002301E013600432A24292
:10036400FBD300F011F8FFF7B1FFFEE70080012096
:100374000000002000000020F4030008000000201A
:100384001C000020FEE7000070B50D4D0D4C641BF1
:10039400A4100026A64209D10B4D0C4C00F018F80D
:1003A400641BA4100026A64205D170BD55F8043B79
:1003B40098470136EEE755F8043B98470136F2E7D3
:1003C400EC030008EC030008EC030008F003000849
:1003D400F8B500BFF8BC08BC9E467047F8B500BF2E
:0803E400F8BC08BC9E467047FE
:0403EC00B90100084B
:0403F000950100086B
:0400000508000339B3
:00000001FF
