:020000040800F2
:1000000000800120A5020008F5020008F5020008A2
:10001000F5020008F5020008F502000800000000E3
:10002000000000000000000000000000F5020008D1
:10003000F502000800000000F5020008F5020008C3
:1000400000000000F5020008F5020008F5020008B3
:10005000F5020008F5020008F5020008F5020008A4
:10006000F5020008F5020008F50200080000000093
:100070000000000000000000000000000000000080
:100080000000000000000000F50200080000000071
:10009000000000000000000000000000F502000861
:1000A000F5020008F5020008F5020008F502000854
:1000B000F5020008F5020008F5020008F502000844
:1000C000F5020008F5020008F5020008F502000834
:1000D000F5020008F5020008F50200080000000023
:1000E000F5020008F5020008F50200080000000013
:1000F0000000000000000000000000000000000000
:1001000000000000F5020008F5020008F5020008F2
:1001100000000000000000000000000000000000DF
:1001200000000000000000000000000000000000CF
:1001300000000000000000000000000000000000BF
:10014000000000000000000000000000F5020008B0
:10015000000000000000000000000000F5020008A0
:10016000F5020008F5020008000000000000000091
:10017000000000000000000000000000000000007F
:1001800000000000F5020008000000000000000070
:04019000F50200086C
:1001940010B5054C237833B9044B13B10448AFF3BD
:1001A40000800123237010BD000000200000000027
:1001B4004003000808B5034B1BB103490348AFF3E0
:1001C400008008BD00000000040000204003000877
:1001D40080B485B000AF2F4B1B6B2E4A43F0010354
:1001E40013632D4B1B682C4A43F0010313602A4B05
:1001F4001B68294A43F010031360274B1B68264AE7
:1002040043F480731360244B1B68234A43F48053E4
:100214001360214B5B69204A83F00103536100237F
:10022400FB6002E0FB680133FB60FB681B4A9342FE
:10023400F8DD194B5B69184A83F00403536100230A
:10024400BB6002E0BB680133BB60BB68134A9342E6
:10025400F8DD114B5B69104A83F0100353610023EE
:100264007B6002E07B6801337B607B680B4A9342CE
:10027400F8DD094B5B69084A83F0400353610023AE
:100284003B6002E03B6801333B603B68034A9342B6
:10029400F8DDBEE70038024000000240FF340C00E5
:1002A4000D488546AFF300800C480D490D4A0023E4
:1002B40002E0D458C4500433C4188C42F9D30A4A17
:1002C4000A4C002301E013600432A242FBD300F085
:1002D40011F8FFF77DFFFEE70080012000000020F9
:1002E4000000002060030008000000201C00002023
:1002F400FEE7000070B50D4D0D4C641BA4100026E4
:10030400A64209D10B4D0C4C00F018F8641BA41044
:100314000026A64205D170BD55F8043B9847013626
:10032400EEE755F8043B98470136F2E75803000816
:1003340058030008580300085C030008F8B500BF20
:10034400F8BC08BC9E467047F8B500BFF8BC08BCB2
:040354009E4670470A
:04035800B9010008DF
:04035C0095010008FF
:04000005080002A548
:00000001FF
