:020000040800F2
:10000000008001206D060008BD060008BD0600083E
:10001000BD060008BD060008BD060008000000007F
:10002000000000000000000000000000BD06000805
:10003000BD06000800000000BD060008BD0600085F
:1000400000000000BD060008BD060008BD0600084F
:10005000BD060008BD060008BD060008BD06000874
:10006000BD060008BD060008BD060008000000002F
:100070000000000000000000000000000000000080
:100080000000000000000000BD06000800000000A5
:10009000000000000000000000000000BD06000895
:1000A000BD060008BD060008BD060008BD06000824
:1000B000BD060008BD060008BD060008BD06000814
:1000C000BD060008BD060008BD060008BD06000804
:1000D000BD060008BD060008BD06000800000000BF
:1000E000BD060008BD060008BD06000800000000AF
:1000F0000000000000000000000000000000000000
:1001000000000000BD060008BD060008BD0600088E
:1001100000000000000000000000000000000000DF
:1001200000000000000000000000000000000000CF
:1001300000000000000000000000000000000000BF
:10014000000000000000000000000000BD060008E4
:10015000000000000000000000000000BD060008D4
:10016000BD060008BD0600080000000000000000F9
:10017000000000000000000000000000000000007F
:1001800000000000BD0600080000000000000000A4
:04019000BD060008A0
:1001940010B5054C237833B9044B13B10448AFF3BD
:1001A40000800123237010BD000000200000000027
:1001B4000807000808B5034B1BB103490348AFF314
:1001C400008008BD000000000400002008070008AB
:1001D40080B499B000AF914B1B6B904A43F001037C
:1001E40013638F4B1B688E4A43F0010313608C4BDF
:1001F4001B688B4A43F004031360894B1B68884ACD
:1002040043F010031360864B1B68854A43F0400398
:100214001360834B1B68824A43F480731360804BE2
:100224001B687F4A43F4806313607D4B1B687C4AE0
:1002340043F4805313607A4B1B68794A43F4804338
:100244001360774B1B68764A43F480331360744B16
:100254001B68734A43F480231360714B1B68704A14
:1002640043F4801313606E4B1B686D4A43F48003A0
:1002740013606B4B1B686A4A43F080731360684BCE
:100284001B68674A43F080631360654B1B68644ACC
:1002940023F000631360624B1B68614A43F0805390
:1002A40013605F4B1B685E4A23F0005313605C4B82
:1002B4001B685B4A43F080431360594B1B68584AE0
:1002C40023F000431360554B1B6B544A43F0020365
:1002D4001363544B1B68534A43F001031360514B9F
:1002E4001B68504A43F0040313604E4B1B684D4A8D
:1002F40043F0100313604B4B1B684A4A43F040031E
:100304001360484B1B68474A23F080031360454B36
:100314001B68444A43F480731360424B1B68414A90
:1003240023F4007313603F4B1B683E4A43F480631D
:1003340013603C4B1B683B4A43F480531360394BB6
:100344001B68384A43F480431360354B5B69344A75
:1003540083F0010353610023FB6502E0FB6D01336D
:10036400FB65FB6D304A9342F8DD2D4B5B692C4AEB
:1003740083F0020353610023BB6502E0BB6D0133CC
:10038400BB65BB6D284A9342F8DD254B5B69244A63
:1003940083F00403536100237B6502E07B6D01332A
:1003A4007B657B6D204A9342F8DD1D4B5B691C4ADB
:1003B40083F00803536100233B6502E03B6D013386
:1003C4003B653B6D184A9342F8DD154B5B69144A53
:1003D40083F0100353610023FB6402E0FB6C0133E0
:1003E400FB64FB6C104A9342F8DD0D4B5B690C4ACD
:1003F40083F0200353610023BB6402E0BB6C013330
:10040400BB64BB6C084A9342F8DD054B5B69044A44
:1004140083F04003536100237B640AE00038024008
:100424000000024000040240FF340C007B6C0133E6
:100434007B647B6C894A9342F8DD894B5B69884A0B
:1004440083F08003536100233B6402E03B6C01337F
:100454003B643B6C814A9342F8DD814B5B69804A83
:1004640083F4807353610023FB6302E0FB6B01336D
:10047400FB63FB6B794A9342F8DD794B5B69784AFD
:1004840083F4007353610023BB6302E0BB6B01334D
:10049400BB63BB6B714A9342F8DD714B5B69704A75
:1004A40083F48063536100237B6302E07B6B01333D
:1004B4007B637B6B694A9342F8DD694B5B69684AED
:1004C40083F40063536100233B6302E03B6B01331D
:1004D4003B633B6B614A9342F8DD614B5B69604A65
:1004E40083F4805353610023FB6202E0FB6A01330F
:1004F400FB62FB6A594A9342F8DD594B5B69584ADF
:1005040083F4005353610023BB6202E0BB6A0133EE
:10051400BB62BB6A514A9342F8DD514B5B69504A56
:1005240083F48043536100237B6202E07B6A0133DE
:100534007B627B6A494A9342F8DD494B5B69484ACE
:1005440083F40043536100233B6202E03B6A0133BE
:100554003B623B6A414A9342F8DD424B5B69414A44
:1005640083F0010353610023FB6102E0FB69013363
:10057400FB61FB69394A9342F8DD3A4B5B69394ABE
:1005840083F0020353610023BB6102E0BB690133C2
:10059400BB61BB69314A9342F8DD324B5B69314A36
:1005A40083F00403536100237B6102E07B69013320
:1005B4007B617B69294A9342F8DD2A4B5B69294AAE
:1005C40083F00803536100233B6102E03B6901337C
:1005D4003B613B69214A9342F8DD224B5B69214A26
:1005E40083F0100353610023FB6002E0FB680133D6
:1005F400FB60FB68194A9342F8DD1A4B5B69194AA0
:1006040083F0200353610023BB6002E0BB68013325
:10061400BB60BB68114A9342F8DD124B5B69114A17
:1006240083F04003536100237B6002E07B68013365
:100634007B607B68094A9342F8DD0A4B5B69094A8F
:1006440083F08003536100233B6002E03B68013385
:100654003B603B68014A9342F8DD76E6FF340C00C8
:1006640000000240000402400D488546AFF30080BC
:100674000C480D490D4A002302E0D458C4500433F9
:10068400C4188C42F9D30A4A0A4C002301E01360CF
:100694000432A242FBD300F011F8FFF799FDFEE704
:1006A400008001200000002000000020280700082E
:1006B400000000201C000020FEE7000070B50D4D76
:1006C4000D4C641BA4100026A64209D10B4D0C4C02
:1006D40000F018F8641BA4100026A64205D170BDD2
:1006E40055F8043B98470136EEE755F8043B984724
:1006F4000136F2E720070008200700082007000859
:1007040024070008F8B500BFF8BC08BC9E46704733
:0C071400F8B500BFF8BC08BC9E4670475A
:04072000B901000813
:040724009501000833
:040000050800066D7C
:00000001FF
