:020000040800F2
:1000000000800120350400088504000885040008EC
:10001000850400088504000885040008000000002D
:10002000000000000000000000000000850400083F
:10003000850400080000000085040008850400080D
:1000400000000000850400088504000885040008FD
:10005000850400088504000885040008850400085C
:1000600085040008850400088504000800000000DD
:100070000000000000000000000000000000000080
:1000800000000000000000008504000800000000DF
:1000900000000000000000000000000085040008CF
:1000A000850400088504000885040008850400080C
:1000B00085040008850400088504000885040008FC
:1000C00085040008850400088504000885040008EC
:1000D000850400088504000885040008000000006D
:1000E000850400088504000885040008000000005D
:1000F0000000000000000000000000000000000000
:10010000000000008504000885040008850400083C
:1001100000000000000000000000000000000000DF
:1001200000000000000000000000000000000000CF
:1001300000000000000000000000000000000000BF
:10014000000000000000000000000000850400081E
:10015000000000000000000000000000850400080E
:10016000850400088504000800000000000000006D
:10017000000000000000000000000000000000007F
:1001800000000000850400080000000000000000DE
:0401900085040008DA
:1001940010B5054C237833B9044B13B10448AFF3BD
:1001A40000800123237010BD000000200000000027
:1001B400D004000808B5034B1BB103490348AFF34F
:1001C400008008BD0000000004000020D0040008E6
:1001D40080B485B000AF78600023FB6022E0174B49
:1001E4004FF47A525A60154B00229A60134B1B68E5
:1001F400124A43F004031360104B1B680F4A43F088
:100204000103136000BF0D4B1B6803F48033002B04
:10021400F9D00A4B1B68094A23F001031360FB68F9
:100224000133FB60FA687B689A42D8DB00BF00BFE9
:100234001437BD465DF8047B704700BF10E000E052
:1002440080B582B000AF774B1B6B764A43F0030353
:100254001363754B1B68744A23F00F031360734BCD
:100264001B68724A43F4AA5343F0150313606F4B9F
:100274001B686E4A23F42A5323F02A0313600023D5
:100284007B60694B1B6903F00103002B13D002E070
:100294000A20FFF79DFF644B1B6903F00103002B49
:1002A400F6D17B68092B02D100237B601CE07B68BC
:1002B40001337B6018E05C4B1B6903F00203002BE5
:1002C40012D002E00A20FFF783FF574B1B6903F0AB
:1002D4000203002BF6D17B68002B02D109237B603B
:1002E40002E07B68013B7B607B68002B0CD14F4BA9
:1002F4005B694E4A43F03F0353614C4B5B694B4A85
:1003040023F04003536188E07B68012B0CD1474BF9
:100314005B69464A43F006035361444B5B69434AB5
:1003240023F07903536178E07B68022B0CD13F4BB7
:100334005B693E4A43F05B0353613C4B5B693B4A58
:1003440023F02403536168E07B68032B0CD1374B03
:100354005B69364A43F04F035361344B5B69334A5C
:1003640023F03003536158E07B68042B0CD12F4BEE
:100374005B692E4A43F0660353612C4B5B692B4A3D
:1003840023F01903536148E07B68052B0CD1274BFC
:100394005B69264A43F06D035361244B5B69234A2E
:1003A40023F01203536138E07B68062B0CD11F4BFA
:1003B4005B691E4A43F07D0353611C4B5B691B4A16
:1003C40023F00203536128E07B68072B0CD1174B01
:1003D4005B69164A43F007035361144B5B69134A84
:1003E40023F07803536118E07B68082B06D10F4B88
:1003F4005B690E4A43F07F0353610EE07B68092B6F
:100404000BD10A4B5B69094A43F06F035361074BF5
:100414005B69064A23F0100353616420FFF7D8FE9A
:100424002FE700BF003802400000024000040240F1
:100434000D488546AFF300800C480D490D4A002352
:1004440002E0D458C4500433C4188C42F9D30A4A85
:100454000A4C002301E013600432A242FBD300F0F3
:1004640011F8FFF7EDFEFEE70080012000000020F8
:1004740000000020F0040008000000201C00002000
:10048400FEE7000070B50D4D0D4C641BA410002652
:10049400A64209D10B4D0C4C00F018F8641BA410B3
:1004A4000026A64205D170BD55F8043B9847013695
:1004B400EEE755F8043B98470136F2E7E8040008F4
:1004C400E8040008E8040008EC040008F8B500BFDC
:1004D400F8BC08BC9E467047F8B500BFF8BC08BC21
:0404E4009E46704779
:0404E800B90100084E
:0404EC00950100086E
:0400000508000435B6
:00000001FF
