:020000040800F2
:100000000080012025020008750200087502000822
:100010007502000875020008750200080000000063
:100020000000000000000000000000007502000851
:100030007502000800000000750200087502000843
:100040000000000075020008750200087502000833
:1000500075020008750200087502000875020008A4
:100060007502000875020008750200080000000013
:100070000000000000000000000000000000000080
:1000800000000000000000007502000800000000F1
:1000900000000000000000000000000075020008E1
:1000A0007502000875020008750200087502000854
:1000B0007502000875020008750200087502000844
:1000C0007502000875020008750200087502000834
:1000D00075020008750200087502000800000000A3
:1000E0007502000875020008750200080000000093
:1000F0000000000000000000000000000000000000
:100100000000000075020008750200087502000872
:1001100000000000000000000000000000000000DF
:1001200000000000000000000000000000000000CF
:1001300000000000000000000000000000000000BF
:100140000000000000000000000000007502000830
:100150000000000000000000000000007502000820
:100160007502000875020008000000000000000091
:10017000000000000000000000000000000000007F
:1001800000000000750200080000000000000000F0
:0401900075020008EC
:1001940010B5054C237833B9044B13B10448AFF3BD
:1001A40000800123237010BD000000200000000027
:1001B400C002000808B5034B1BB103490348AFF361
:1001C400008008BD0000000004000020C0020008F8
:1001D40080B483B000AF0E4B1B680D4A43F001039B
:1001E40013600C4B1B680B4A43F0010313600A4B6A
:1001F4001B68094A83F00103136000237B6002E05B
:100204007B6801337B607B68044A9342F8DDEEE748
:10021400303802400000024014000240FF340C0059
:100224000D488546AFF300800C480D490D4A002364
:1002340002E0D458C4500433C4188C42F9D30A4A97
:100244000A4C002301E013600432A242FBD300F005
:1002540011F8FFF7BDFFFEE7008001200000002039
:1002640000000020E0020008000000201C00002024
:10027400FEE7000070B50D4D0D4C641BA410002664
:10028400A64209D10B4D0C4C00F018F8641BA410C5
:100294000026A64205D170BD55F8043B98470136A7
:1002A400EEE755F8043B98470136F2E7D802000818
:1002B400D8020008D8020008DC020008F8B500BF24
:1002C400F8BC08BC9E467047F8B500BFF8BC08BC33
:0402D4009E4670478B
:0402D800B901000860
:0402DC009501000880
:0400000508000225C8
:00000001FF
