:020000040800F2
:100000000080012099040008E9040008E9040008C0
:10001000E9040008E9040008E90400080000000001
:10002000000000000000000000000000E9040008DB
:10003000E904000800000000E9040008E9040008E1
:1000400000000000E9040008E9040008E9040008D1
:10005000E9040008E9040008E9040008E9040008CC
:10006000E9040008E9040008E904000800000000B1
:100070000000000000000000000000000000000080
:100080000000000000000000E9040008000000007B
:10009000000000000000000000000000E90400086B
:1000A000E9040008E9040008E9040008E90400087C
:1000B000E9040008E9040008E9040008E90400086C
:1000C000E9040008E9040008E9040008E90400085C
:1000D000E9040008E9040008E90400080000000041
:1000E000E9040008E9040008E90400080000000031
:1000F0000000000000000000000000000000000000
:1001000000000000E9040008E9040008E904000810
:1001100000000000000000000000000000000000DF
:1001200000000000000000000000000000000000CF
:1001300000000000000000000000000000000000BF
:10014000000000000000000000000000E9040008BA
:10015000000000000000000000000000E9040008AA
:10016000E9040008E90400080000000000000000A5
:10017000000000000000000000000000000000007F
:1001800000000000E904000800000000000000007A
:04019000E904000876
:1001940010B5054C237833B9044B13B10448AFF3BD
:1001A40000800123237010BD000000200000000027
:1001B4003405000808B5034B1BB103490348AFF3EA
:1001C400008008BD00000000040000203405000881
:1001D40080B582B000AF0346FB71164B00225A6112
:1001E400144B5B69134A23F001035361114B5B69A0
:1001F400104A23F0020353610E4B5B69FA799200B3
:1002040011460C4A0B4353610A4B5B69094A43F09C
:10021400020353610A2000F07DF8064B5B69054A2E
:1002240023F0020353610A2000F074F800BF08377A
:10023400BD4680BD0000024080B582B000AF0346D9
:10024400FB71164B00225A61144B5B69134A43F04D
:1002540001035361114B5B69104A23F0020353619C
:100264000E4B5B69FA79920011460C4A0B435361B9
:100274000A4B5B69094A43F0020353610A2000F008
:1002840049F8064B5B69054A23F0020353610A20CF
:1002940000F040F800BF0837BD4680BD00000240B2
:1002A40080B500AF4FF4967000F034F83820FFF7B3
:1002B4008FFF0E20FFF78CFF0120FFF789FF0A2034
:1002C40000F028F80620FFF783FF8020FFF780FF67
:1002D40000BF80BD80B582B000AF786007E07B6866
:1002E4001B781846FFF7A8FF7B6801337B607B68A7
:1002F4001B78002BF3D100BF00BF0837BD4680BD7B
:1003040080B500AF0120FFF763FF0A2000F002F878
:1003140000BF80BD80B485B000AF78600023FB606F
:1003240022E0174B4FF47A525A60154B00229A6020
:10033400134B1B68124A43F004031360104B1B68F1
:100344000F4A43F00103136000BF0D4B1B6803F415
:100354008033002BF9D00A4B1B68094A23F00103B0
:100364001360FB680133FB60FA687B689A42D8DB50
:1003740000BF00BF1437BD465DF8047B704700BF63
:1003840010E000E080B500AF3A4B1B6B394A43F0F4
:1003940003031363384B1A683749384B13430B6014
:1003A400354B1A683449364B13400B60354B1B6888
:1003B400344A43F005031360324B1B68314A23F07F
:1003C4000A031360FFF76CFF8020FFF701FF2E483C
:1003D400FFF780FF2B4B5B692A4A43F0010353610B
:1003E400284B5B69274A23F00203536140F6B83077
:1003F400FFF790FFFFF784FF8020FFF7E9FE234813
:10040400FFF768FF1F4B5B691E4A23F00303536128
:1004140040F6B830FFF77EFFFFF772FF8020FFF74A
:10042400D7FE1B48FFF756FF164B5B69154A23F0AE
:1004340001035361134B5B69124A43F00203536196
:1004440040F6B830FFF766FFFFF75AFF8020FFF74A
:10045400BFFE0E48FFF73EFF0A4B5B69094A23F0D3
:100464000303536140F6B830FFF754FFFFF748FF2A
:10047400AAE700BF003802400000024055550500BD
:100484005555F5FF000402404C0500085C050008C2
:10049400640500080D488546AFF300800C480D49FB
:1004A4000D4A002302E0D458C4500433C4188C42CB
:1004B400F9D30A4A0A4C002301E013600432A24231
:1004C400FBD300F011F8FFF75DFFFEE70080012089
:1004D40000000020000000207C050008000000202F
:1004E4001C000020FEE7000070B50D4D0D4C641B90
:1004F400A4100026A64209D10B4D0C4C00F018F8AC
:10050400641BA4100026A64205D170BD55F8043B17
:1005140098470136EEE755F8043B98470136F2E771
:1005240074050008740500087405000878050008BF
:10053400F8B500BFF8BC08BC9E467047F8B500BFCC
:08054400F8BC08BC9E4670479C
:10054C004D6F76696E6720466F727761726400003A
:10055C0053746F70706564004D6F76696E672042DE
:08056C0061636B7761726400AA
:04057400B9010008C1
:0405780095010008E1
:040000050800049952
:00000001FF
