:020000040800F2
:1000000000800120450400089504000895040008BC
:1000100095040008950400089504000800000000FD
:10002000000000000000000000000000950400082F
:1000300095040008000000009504000895040008DD
:1000400000000000950400089504000895040008CD
:10005000950400089504000895040008950400081C
:1000600095040008950400089504000800000000AD
:100070000000000000000000000000000000000080
:1000800000000000000000009504000800000000CF
:1000900000000000000000000000000095040008BF
:1000A00095040008950400089504000895040008CC
:1000B00095040008950400089504000895040008BC
:1000C00095040008950400089504000895040008AC
:1000D000950400089504000895040008000000003D
:1000E000950400089504000895040008000000002D
:1000F0000000000000000000000000000000000000
:10010000000000009504000895040008950400080C
:1001100000000000000000000000000000000000DF
:1001200000000000000000000000000000000000CF
:1001300000000000000000000000000000000000BF
:10014000000000000000000000000000950400080E
:1001500000000000000000000000000095040008FE
:10016000950400089504000800000000000000004D
:10017000000000000000000000000000000000007F
:1001800000000000950400080000000000000000CE
:0401900095040008CA
:1001940010B5054C237833B9044B13B10448AFF3BD
:1001A40000800123237010BD000000200000000027
:1001B400E004000808B5034B1BB103490348AFF33F
:1001C400008008BD0000000004000020E0040008D6
:1001D40080B485B000AF78600023FB6022E0174B49
:1001E4004FF47A525A60154B00229A60134B1B68E5
:1001F400124A43F004031360104B1B680F4A43F088
:100204000103136000BF0D4B1B6803F48033002B04
:10021400F9D00A4B1B68094A23F001031360FB68F9
:100224000133FB60FA687B689A42D8DB00BF00BFE9
:100234001437BD465DF8047B704700BF10E000E052
:1002440080B582B000AF0346FB71164B00225A61A1
:10025400144B5B69134A23F001035361114B5B692F
:10026400104A23F0020353610E4B5B69FA79920042
:1002740011460C4A0B4353610A4B5B69094A43F02C
:10028400020353610A20FFF7A3FF064B5B69054A8B
:1002940023F0020353610A20FFF79AFF00BF0837D7
:1002A400BD4680BD0000024080B582B000AF034669
:1002B400FB71164B00225A61144B5B69134A43F0DD
:1002C40001035361114B5B69104A23F0020353612C
:1002D4000E4B5B69FA79920011460C4A0B43536149
:1002E4000A4B5B69094A43F0020353610A20FFF792
:1002F4006FFF064B5B69054A23F0020353610A2032
:10030400FFF766FF00BF0837BD4680BD000002400E
:1003140080B500AF4FF49670FFF75AFF3820FFF70F
:100324008FFF0E20FFF78CFF0120FFF789FF0A20C3
:10033400FFF74EFF0620FFF783FF8020FFF780FFC3
:1003440000BF80BD80B582B000AF786007E07B68F5
:100354001B781846FFF7A8FF7B6801337B607B6836
:100364001B78002BF3D100BF00BF0837BD4680BD0A
:1003740080B500AF294B1B6B284A43F0010313637C
:10038400274B1A682649274B13430B60244B1A68E2
:100394002349254B13400B60FFF7BAFF8020FFF77A
:1003A4004FFF2248FFF7CEFF4FF47A70FFF710FF9C
:1003B400C020FFF745FF1E48FFF7C4FF4FF47A70D3
:1003C400FFF706FF0120FFF73BFF0120FFF700FFC7
:1003D4008020FFF735FF1748FFF7B4FF4FF47A701A
:1003E400FFF7F6FEC020FFF72BFF1348FFF7AAFF25
:1003F4004FF47A70FFF7ECFE9020FFF721FF0F48CF
:10040400FFF7A0FF4FF47A70FFF7E2FE0120FFF739
:1004140017FF0120FFF7DCFEC0E700BF00380240F1
:1004240000000240555505005555F5FFF804000835
:10043400040500080C050008140500081C05000844
:100444000D488546AFF300800C480D490D4A002342
:1004540002E0D458C4500433C4188C42F9D30A4A75
:100464000A4C002301E013600432A242FBD300F0E3
:1004740011F8FFF77DFFFEE7008001200000002057
:10048400000000202C050008000000201C000020B3
:10049400FEE7000070B50D4D0D4C641BA410002642
:1004A400A64209D10B4D0C4C00F018F8641BA410A3
:1004B4000026A64205D170BD55F8043B9847013685
:1004C400EEE755F8043B98470136F2E724050008A7
:1004D400240500082405000828050008F8B500BF15
:1004E400F8BC08BC9E467047F8B500BFF8BC08BC11
:0404F4009E46704769
:1004F8005368616B756E746C610000004A616973C2
:1005080077616C0041726A756E00000053696E670E
:0C0518006800000052616A7075740000F9
:04052400B901000811
:040528009501000831
:0400000508000445A6
:00000001FF
