:020000040800F2
:100000000080012075020008C5020008C502000832
:10001000C5020008C5020008C50200080000000073
:10002000000000000000000000000000C502000801
:10003000C502000800000000C5020008C502000853
:1000400000000000C5020008C5020008C502000843
:10005000C5020008C5020008C5020008C502000864
:10006000C5020008C5020008C50200080000000023
:100070000000000000000000000000000000000080
:100080000000000000000000C502000800000000A1
:10009000000000000000000000000000C502000891
:1000A000C5020008C5020008C5020008C502000814
:1000B000C5020008C5020008C5020008C502000804
:1000C000C5020008C5020008C5020008C5020008F4
:1000D000C5020008C5020008C502000800000000B3
:1000E000C5020008C5020008C502000800000000A3
:1000F0000000000000000000000000000000000000
:1001000000000000C5020008C5020008C502000882
:1001100000000000000000000000000000000000DF
:1001200000000000000000000000000000000000CF
:1001300000000000000000000000000000000000BF
:10014000000000000000000000000000C5020008E0
:10015000000000000000000000000000C5020008D0
:10016000C5020008C50200080000000000000000F1
:10017000000000000000000000000000000000007F
:1001800000000000C50200080000000000000000A0
:04019000C50200089C
:1001940010B5054C237833B9044B13B10448AFF3BD
:1001A40000800123237010BD000000200000000027
:1001B4001003000808B5034B1BB103490348AFF310
:1001C400008008BD000000000400002010030008A7
:1001D40080B483B000AF224B1B6B214A43F0010370
:1001E40013631F4B1B6B1E4A43F0020313631D4B27
:1001F4001B681C4A43F0010313601B4B1B681A4A1B
:1002040043F001031360174B5B69164A43F0010383
:100214005361154B5B69144A23F0010353610023B6
:100224007B6002E07B6801337B607B680F4A93420A
:10023400F8DD0D4B5B690C4A43F001035361094B34
:100244005B69084A23F00103536100233B6002E029
:100254003B6801333B603B68044A9342F8DDD2E7D4
:10026400003802400000024000040240801A0600E8
:100274000D488546AFF300800C480D490D4A002314
:1002840002E0D458C4500433C4188C42F9D30A4A47
:100294000A4C002301E013600432A242FBD300F0B5
:1002A40011F8FFF795FFFEE7008001200000002011
:1002B4000000002030030008000000201C00002083
:1002C400FEE7000070B50D4D0D4C641BA410002614
:1002D400A64209D10B4D0C4C00F018F8641BA41075
:1002E4000026A64205D170BD55F8043B9847013657
:1002F400EEE755F8043B98470136F2E72803000877
:1003040028030008280300082C030008F8B500BFE0
:10031400F8BC08BC9E467047F8B500BFF8BC08BCE2
:040324009E4670473A
:04032800B90100080F
:04032C00950100082F
:040000050800027578
:00000001FF
