:020000040800F2
:1000000000800120B9020008090300080903000864
:1000100009030008090300080903000800000000A4
:1000200000000000000000000000000009030008BC
:100030000903000800000000090300080903000884
:100040000000000009030008090300080903000874
:1000500009030008090300087D02000809030008DD
:100060000903000809030008090300080000000054
:100070000000000000000000000000000000000080
:10008000000000000000000009030008000000005C
:10009000000000000000000000000000090300084C
:1000A0000903000809030008090300080903000800
:1000B00009030008090300080903000809030008F0
:1000C00009030008090300080903000809030008E0
:1000D00009030008090300080903000800000000E4
:1000E00009030008090300080903000800000000D4
:1000F0000000000000000000000000000000000000
:1001000000000000090300080903000809030008B3
:1001100000000000000000000000000000000000DF
:1001200000000000000000000000000000000000CF
:1001300000000000000000000000000000000000BF
:10014000000000000000000000000000090300089B
:10015000000000000000000000000000090300088B
:100160000903000809030008000000000000000067
:10017000000000000000000000000000000000007F
:10018000000000000903000800000000000000005B
:040190000903000857
:1001940010B5054C237833B9044B13B10448AFF3BD
:1001A40000800123237010BD000000200000000027
:1001B4005403000808B5034B1BB103490348AFF3CC
:1001C400008008BD00000000040000205403000863
:1001D40080B483B000AF0346FB7197F90730002B5E
:1001E4000BDBFB7903F01F02074997F907305B0922
:1001F400012000FA02F241F8232000BF0C37BD466B
:100204005DF8047B704700BF00E100E080B500AFFB
:1002140072B600BF144B1B6B134A43F00103136304
:10022400124B1B68114A43F0040313600E4B5B6CC2
:100234000D4A43F4804353640D4B00229A600D4BE6
:100244001B680C4A43F0010313600A4B9B68094A7C
:1002540043F0010393600620FFF7BAFF034B00222B
:100264005A6162B600BFFEE7003802400000024057
:1002740000380140003C014080B483B000AF0B4B18
:100284005B690A4A83F00203536100237B6002E046
:100294007B6801337B607B68054A9342F8DD00BFCD
:1002A40000BF0C37BD465DF8047B70470000024078
:1002B4009F8601000D488546AFF300800C480D4928
:1002C4000D4A002302E0D458C4500433C4188C42AD
:1002D400F9D30A4A0A4C002301E013600432A24213
:1002E400FBD300F011F8FFF791FFFEE70080012037
:1002F400000000200000002074030008000000201B
:100304001C000020FEE7000070B50D4D0D4C641B71
:10031400A4100026A64209D10B4D0C4C00F018F88D
:10032400641BA4100026A64205D170BD55F8043BF9
:1003340098470136EEE755F8043B98470136F2E753
:100344006C0300086C0300086C03000870030008C9
:10035400F8B500BFF8BC08BC9E467047F8B500BFAE
:08036400F8BC08BC9E4670477E
:04036C00B9010008CB
:0403700095010008EB
:04000005080002B934
:00000001FF
