:020000040800F2
:100000000080012059030008A9030008A903000883
:10001000A9030008A9030008A903000800000000C4
:10002000000000000000000000000000A90300081C
:10003000A903000800000000A9030008A9030008A4
:1000400000000000A9030008A9030008A903000894
:10005000A9030008A9030008A9030008A9030008D0
:10006000A9030008A9030008A90300080000000074
:100070000000000000000000000000000000000080
:100080000000000000000000A903000800000000BC
:10009000000000000000000000000000A9030008AC
:1000A000A9030008A9030008A9030008A903000880
:1000B000A9030008A9030008A9030008A903000870
:1000C000A9030008A9030008A9030008A903000860
:1000D000A9030008A90300080D03000800000000A0
:1000E000A9030008A9030008A903000800000000F4
:1000F0000000000000000000000000000000000000
:1001000000000000A9030008A9030008A9030008D3
:1001100000000000000000000000000000000000DF
:1001200000000000000000000000000000000000CF
:1001300000000000000000000000000000000000BF
:10014000000000000000000000000000A9030008FB
:10015000000000000000000000000000A9030008EB
:10016000A9030008A9030008000000000000000027
:10017000000000000000000000000000000000007F
:1001800000000000A90300080000000000000000BB
:04019000A9030008B7
:1001940010B5054C237833B9044B13B10448AFF3BD
:1001A40000800123237010BD000000200000000027
:1001B400F403000808B5034B1BB103490348AFF32C
:1001C400008008BD0000000004000020F4030008C3
:1001D40080B483B000AF0346FB7197F90730002B5E
:1001E4000BDBFB7903F01F02074997F907305B0922
:1001F400012000FA02F241F8232000BF0C37BD466B
:100204005DF8047B704700BF00E100E080B500AFFB
:100214001A4B1B6B194A43F001031363174B1B6CF6
:10022400164A43F400331364154B1B68144A43F015
:10023400A0031360124B1B6A114A43F4EE4313628A
:10024400104BDB680F4A43F00C03D3600D4BDB68A3
:100254000C4A43F02003D3600A4B8B229A60262079
:10026400FFF7B6FF074BDB68064A43F40053D3603D
:10027400044B00225A6000BF80BD00BF003802401A
:10028400000002400044004080B483B000AF034645
:10029400FB7100BF074B1B6803F08003002BF9D0F0
:1002A400044AFB79536000BF0C37BD465DF8047BFC
:1002B400704700BF0044004080B400AF00BF074B4C
:1002C4001B6803F02003002BF9D0044B5B68DBB2FE
:1002D4001846BD465DF8047B704700BF00440040EB
:1002E40080B500AFFFF792FF064B1B68054A43F049
:1002F40004031360FFF7E0FF03461846FFF7C4FF4B
:10030400F8E700BF0000024080B483B000AF0E4B9A
:100314001B6803F02003002B0FD00C4B5B690B4AC6
:1003240083F00203536100237B6002E07B680133A6
:100334007B607B68064A9342F8DD00BF0C37BD46FC
:100344005DF8047B704700BF004400400000024099
:100354009F8601000D488546AFF300800C480D4987
:100364000D4A002302E0D458C4500433C4188C420C
:10037400F9D30A4A0A4C002301E013600432A24272
:10038400FBD300F011F8FFF7ABFFFEE7008001207C
:1003940000000020000000201404000800000020D9
:1003A4001C000020FEE7000070B50D4D0D4C641BD1
:1003B400A4100026A64209D10B4D0C4C00F018F8ED
:1003C400641BA4100026A64205D170BD55F8043B59
:1003D40098470136EEE755F8043B98470136F2E7B3
:1003E4000C0400080C0400080C04000810040008A5
:1003F400F8B500BFF8BC08BC9E467047F8B500BF0E
:08040400F8BC08BC9E467047DD
:04040C00B90100082A
:04041000950100084A
:040000050800035993
:00000001FF
