:020000040800F2
:10000000008001205D020008AD020008AD0200087A
:10001000AD020008AD020008AD02000800000000BB
:10002000000000000000000000000000AD02000819
:10003000AD02000800000000AD020008AD0200089B
:1000400000000000AD020008AD020008AD0200088B
:10005000AD020008AD020008AD020008AD020008C4
:10006000AD020008AD020008AD020008000000006B
:100070000000000000000000000000000000000080
:100080000000000000000000AD02000800000000B9
:10009000000000000000000000000000AD020008A9
:1000A000AD020008AD020008AD020008AD02000874
:1000B000AD020008AD020008AD020008AD02000864
:1000C000AD020008AD020008AD020008AD02000854
:1000D000AD020008AD020008AD02000800000000FB
:1000E000AD020008AD020008AD02000800000000EB
:1000F0000000000000000000000000000000000000
:1001000000000000AD020008AD020008AD020008CA
:1001100000000000000000000000000000000000DF
:1001200000000000000000000000000000000000CF
:1001300000000000000000000000000000000000BF
:10014000000000000000000000000000AD020008F8
:10015000000000000000000000000000AD020008E8
:10016000AD020008AD020008000000000000000021
:10017000000000000000000000000000000000007F
:1001800000000000AD0200080000000000000000B8
:04019000AD020008B4
:1001940010B5054C237833B9044B13B10448AFF3BD
:1001A40000800123237010BD000000200000000027
:1001B400F802000808B5034B1BB103490348AFF329
:1001C400008008BD0000000004000020F8020008C0
:1001D40080B483B000AF1D4B1B6B1C4A43F001037A
:1001E40013631B4B1B681A4A43F4AA5343F01503C9
:1001F4001360174B5B69164A43F03F035361144B7A
:100204005B69134A23F04003536100237B6002E0DF
:100214007B6801337B607B680E4A9342F8DD0C4BAC
:100224005B690B4A43F006035361094B5B69084A57
:1002340023F07903536100233B6002E03B68013300
:100244003B603B68034A9342F8DDD2E70038024042
:100254000000024000350C000D488546AFF30080D5
:100264000C480D490D4A002302E0D458C45004330D
:10027400C4188C42F9D30A4A0A4C002301E01360E3
:100284000432A242FBD300F011F8FFF7A1FFFEE70E
:100294000080012000000020000000201803000856
:1002A400000000201C000020FEE7000070B50D4D8A
:1002B4000D4C641BA4100026A64209D10B4D0C4C16
:1002C40000F018F8641BA4100026A64205D170BDE6
:1002D40055F8043B98470136EEE755F8043B984738
:1002E4000136F2E7100300081003000810030008A9
:1002F40014030008F8B500BFF8BC08BC9E4670475C
:0C030400F8B500BFF8BC08BC9E4670476E
:04031000B901000827
:040314009501000847
:040000050800025D90
:00000001FF
